:060000000A128A11122809
:10000800FE00030EF0000408F1000A08F200831253
:1000180003137F08F3000A128A11072B0A128A11A8
:100028001528F701F80183133F30840058300A126D
:100038008A111D230A128A11A0308400CD300A12B9
:100048008A111D2383010A128A11DF29FF1B342814
:1000580083137F1883170008840A0319FF0A08000E
:1000680000308A000408840A820700340D340A34F8
:100078004C346F346E346734693474347534643492
:1000880065343A34203400340D340A340A344C349C
:1000980061347434693474347534643465343A348E
:1000A80020340034573465346C3463346F346D3421
:0800B80065340D340A340034F4
:10020000FF0001308A007F08820705290A128A113F
:10021000D22A0A128A11F82A0A128A11E72A8312AC
:100220000313A101A20179080A128A1100210A12FE
:100230008A11F600760883120313A00024302006EA
:10024000031D2429F701F8012008F6007708A03ED5
:1002500084007608831380000130F7070318F80A3A
:100260000030F8077708A03E840080012430831610
:1002700003132006031DD3297808803AFF0080303D
:100280007F02031D45292B3077020318D3292A301A
:1002900077067804031D08004730831603132306EE
:1002A000031D080047302406031D080041302506C1
:1002B000031D08003C08F600760883120313D400DF
:1002C000831603134908F600760883120313D5003A
:1002D000A101A2012208803AFF0080307F02031DA5
:1002E000732909302102031894298312031321086A
:1002F000123EA03E840083130008F60021083F3E12
:100300008400760880000130A1070318A20A00309B
:10031000A2072208803AFF0080307F02031D922945
:1003200009302102031C75298312031321083F3E63
:10033000840083138001A101A2012208803AFF00FA
:1003400080307F02031DA6290A3021020318C72925
:100350008312031321081E3EA03E8400831300086D
:10036000F6002108493E8400760880000130A1078C
:100370000318A20A0030A2072208803AFF0080304A
:100380007F02031DC5290A302102031CA8298312FC
:1003900003132108493E8400831380010130D600F5
:1003A0000030D7000800F701F8017708A03E84006C
:1003B0008313800183120313D601D701080083162B
:1003C0000313CD01CE0170308F048316031789010A
:1003D0008801043083120313BB003B08F90001308D
:1003E000BB003B08D8000730BB003B08D9000A120D
:1003F0008A1114230A128A111D3083120313A000DC
:100400008030A1000A128A1189220A128A118312ED
:100410000313560857040319832A0A128A11B122BA
:100420000A128A11CF308400831203132030BB00DC
:100430000408BC001730BD003B088400831300088B
:10044000BE00BB0A3C0884003E088000BC0ABD0B0D
:100450001C2A0F30A0008030A1000A128A118922C4
:100460000A128A11CF3083120313A0000030A100BA
:100470000A128A1189220A128A1120308312031368
:10048000BB003B08F4000A128A11E7220A128A1103
:1004900083160313640883120313BB003B08F400A4
:1004A0000A128A11E7220A128A11013083120313F9
:1004B000A0008030A1000A128A1189220A128A1132
:1004C000D93083120313A0000030A1000A128A1150
:1004D00089220A128A11203083120313BB003B08C1
:1004E000F4000A128A11E7220A128A1183160313F2
:1004F000650883120313BB003B08F4000A128A113B
:10050000E7220A128A110A128A110F210A128A118D
:10051000072A831203132108FF00200884000A120F
:100520008A112A200A128A11003A0319080083123C
:1005300003132108FF00200884000A128A112A20D0
:100540000A128A11A2002208F4000A128A11E72274
:100550000A128A11013083120313A0070318A10A9B
:10056000892A83120313D601D701F701F80177080E
:10057000A03E840083138001203084003F30B70008
:100580000408B8001730B900370884008313000846
:10059000BA00B70A380884003A088000B80AB90BD4
:1005A000C42A080083160313071387178B170B172A
:1005B00033309900181518128312031398178316F5
:1005C000031398168C12831203131816080074086C
:1005D0008312031399000C1EEB2A0C120330F60051
:1005E0009730F500F50BF22AF60BF22AF72A0800ED
:1005F000831603138C1283128C1EFB2A1A08F40034
:100600007408F500831603138C16750808008C1AFD
:100610001A087308FF0072088A0071088400700EBF
:100620008300FE0E7E0E09008312031358080A127F
:100630008A110021F701F801080064008001840A92
:0A06400004060319003404061E2B03
:04400E00F4ECFFFFD0
:00000001FF
